{
  "_format": "hh-sol-artifact-1",
  "contractName": "BasicNFT",
  "sourceName": "contracts/BasicNft.sol",
  "abi": [
    {
      "inputs": [],
      "stateMutability": "nonpayable",
      "type": "constructor"
    },
    {
      "inputs": [],
      "name": "ApprovalCallerNotOwnerNorApproved",
      "type": "error"
    },
    {
      "inputs": [],
      "name": "ApprovalQueryForNonexistentToken",
      "type": "error"
    },
    {
      "inputs": [],
      "name": "BalanceQueryForZeroAddress",
      "type": "error"
    },
    {
      "inputs": [],
      "name": "InvalidQueryRange",
      "type": "error"
    },
    {
      "inputs": [],
      "name": "MintERC2309QuantityExceedsLimit",
      "type": "error"
    },
    {
      "inputs": [],
      "name": "MintToZeroAddress",
      "type": "error"
    },
    {
      "inputs": [],
      "name": "MintZeroQuantity",
      "type": "error"
    },
    {
      "inputs": [],
      "name": "NotCompatibleWithSpotMints",
      "type": "error"
    },
    {
      "inputs": [],
      "name": "OwnerQueryForNonexistentToken",
      "type": "error"
    },
    {
      "inputs": [],
      "name": "OwnershipNotInitializedForExtraData",
      "type": "error"
    },
    {
      "inputs": [],
      "name": "SequentialMintExceedsLimit",
      "type": "error"
    },
    {
      "inputs": [],
      "name": "SequentialUpToTooSmall",
      "type": "error"
    },
    {
      "inputs": [],
      "name": "SpotMintTokenIdTooSmall",
      "type": "error"
    },
    {
      "inputs": [],
      "name": "TokenAlreadyExists",
      "type": "error"
    },
    {
      "inputs": [],
      "name": "TransferCallerNotOwnerNorApproved",
      "type": "error"
    },
    {
      "inputs": [],
      "name": "TransferFromIncorrectOwner",
      "type": "error"
    },
    {
      "inputs": [],
      "name": "TransferToNonERC721ReceiverImplementer",
      "type": "error"
    },
    {
      "inputs": [],
      "name": "TransferToZeroAddress",
      "type": "error"
    },
    {
      "inputs": [],
      "name": "URIQueryForNonexistentToken",
      "type": "error"
    },
    {
      "anonymous": false,
      "inputs": [
        {
          "indexed": true,
          "internalType": "address",
          "name": "owner",
          "type": "address"
        },
        {
          "indexed": true,
          "internalType": "address",
          "name": "approved",
          "type": "address"
        },
        {
          "indexed": true,
          "internalType": "uint256",
          "name": "tokenId",
          "type": "uint256"
        }
      ],
      "name": "Approval",
      "type": "event"
    },
    {
      "anonymous": false,
      "inputs": [
        {
          "indexed": true,
          "internalType": "address",
          "name": "owner",
          "type": "address"
        },
        {
          "indexed": true,
          "internalType": "address",
          "name": "operator",
          "type": "address"
        },
        {
          "indexed": false,
          "internalType": "bool",
          "name": "approved",
          "type": "bool"
        }
      ],
      "name": "ApprovalForAll",
      "type": "event"
    },
    {
      "anonymous": false,
      "inputs": [
        {
          "indexed": true,
          "internalType": "uint256",
          "name": "fromTokenId",
          "type": "uint256"
        },
        {
          "indexed": false,
          "internalType": "uint256",
          "name": "toTokenId",
          "type": "uint256"
        },
        {
          "indexed": true,
          "internalType": "address",
          "name": "from",
          "type": "address"
        },
        {
          "indexed": true,
          "internalType": "address",
          "name": "to",
          "type": "address"
        }
      ],
      "name": "ConsecutiveTransfer",
      "type": "event"
    },
    {
      "anonymous": false,
      "inputs": [
        {
          "indexed": true,
          "internalType": "address",
          "name": "from",
          "type": "address"
        },
        {
          "indexed": true,
          "internalType": "address",
          "name": "to",
          "type": "address"
        },
        {
          "indexed": true,
          "internalType": "uint256",
          "name": "tokenId",
          "type": "uint256"
        }
      ],
      "name": "Transfer",
      "type": "event"
    },
    {
      "inputs": [
        {
          "internalType": "address",
          "name": "to",
          "type": "address"
        },
        {
          "internalType": "uint256",
          "name": "tokenId",
          "type": "uint256"
        }
      ],
      "name": "approve",
      "outputs": [],
      "stateMutability": "payable",
      "type": "function"
    },
    {
      "inputs": [
        {
          "internalType": "address",
          "name": "owner",
          "type": "address"
        }
      ],
      "name": "balanceOf",
      "outputs": [
        {
          "internalType": "uint256",
          "name": "",
          "type": "uint256"
        }
      ],
      "stateMutability": "view",
      "type": "function"
    },
    {
      "inputs": [
        {
          "internalType": "uint256",
          "name": "tokenId",
          "type": "uint256"
        }
      ],
      "name": "explicitOwnershipOf",
      "outputs": [
        {
          "components": [
            {
              "internalType": "address",
              "name": "addr",
              "type": "address"
            },
            {
              "internalType": "uint64",
              "name": "startTimestamp",
              "type": "uint64"
            },
            {
              "internalType": "bool",
              "name": "burned",
              "type": "bool"
            },
            {
              "internalType": "uint24",
              "name": "extraData",
              "type": "uint24"
            }
          ],
          "internalType": "struct IERC721A.TokenOwnership",
          "name": "ownership",
          "type": "tuple"
        }
      ],
      "stateMutability": "view",
      "type": "function"
    },
    {
      "inputs": [
        {
          "internalType": "uint256[]",
          "name": "tokenIds",
          "type": "uint256[]"
        }
      ],
      "name": "explicitOwnershipsOf",
      "outputs": [
        {
          "components": [
            {
              "internalType": "address",
              "name": "addr",
              "type": "address"
            },
            {
              "internalType": "uint64",
              "name": "startTimestamp",
              "type": "uint64"
            },
            {
              "internalType": "bool",
              "name": "burned",
              "type": "bool"
            },
            {
              "internalType": "uint24",
              "name": "extraData",
              "type": "uint24"
            }
          ],
          "internalType": "struct IERC721A.TokenOwnership[]",
          "name": "",
          "type": "tuple[]"
        }
      ],
      "stateMutability": "view",
      "type": "function"
    },
    {
      "inputs": [
        {
          "internalType": "uint256",
          "name": "tokenId",
          "type": "uint256"
        }
      ],
      "name": "getApproved",
      "outputs": [
        {
          "internalType": "address",
          "name": "",
          "type": "address"
        }
      ],
      "stateMutability": "view",
      "type": "function"
    },
    {
      "inputs": [
        {
          "internalType": "address",
          "name": "owner",
          "type": "address"
        },
        {
          "internalType": "address",
          "name": "operator",
          "type": "address"
        }
      ],
      "name": "isApprovedForAll",
      "outputs": [
        {
          "internalType": "bool",
          "name": "",
          "type": "bool"
        }
      ],
      "stateMutability": "view",
      "type": "function"
    },
    {
      "inputs": [],
      "name": "name",
      "outputs": [
        {
          "internalType": "string",
          "name": "",
          "type": "string"
        }
      ],
      "stateMutability": "view",
      "type": "function"
    },
    {
      "inputs": [
        {
          "internalType": "uint256",
          "name": "tokenId",
          "type": "uint256"
        }
      ],
      "name": "ownerOf",
      "outputs": [
        {
          "internalType": "address",
          "name": "",
          "type": "address"
        }
      ],
      "stateMutability": "view",
      "type": "function"
    },
    {
      "inputs": [
        {
          "internalType": "address",
          "name": "to",
          "type": "address"
        },
        {
          "internalType": "uint256",
          "name": "quantity",
          "type": "uint256"
        }
      ],
      "name": "safeMint",
      "outputs": [],
      "stateMutability": "nonpayable",
      "type": "function"
    },
    {
      "inputs": [
        {
          "internalType": "address",
          "name": "from",
          "type": "address"
        },
        {
          "internalType": "address",
          "name": "to",
          "type": "address"
        },
        {
          "internalType": "uint256",
          "name": "tokenId",
          "type": "uint256"
        }
      ],
      "name": "safeTransferFrom",
      "outputs": [],
      "stateMutability": "payable",
      "type": "function"
    },
    {
      "inputs": [
        {
          "internalType": "address",
          "name": "from",
          "type": "address"
        },
        {
          "internalType": "address",
          "name": "to",
          "type": "address"
        },
        {
          "internalType": "uint256",
          "name": "tokenId",
          "type": "uint256"
        },
        {
          "internalType": "bytes",
          "name": "_data",
          "type": "bytes"
        }
      ],
      "name": "safeTransferFrom",
      "outputs": [],
      "stateMutability": "payable",
      "type": "function"
    },
    {
      "inputs": [
        {
          "internalType": "address",
          "name": "operator",
          "type": "address"
        },
        {
          "internalType": "bool",
          "name": "approved",
          "type": "bool"
        }
      ],
      "name": "setApprovalForAll",
      "outputs": [],
      "stateMutability": "nonpayable",
      "type": "function"
    },
    {
      "inputs": [
        {
          "internalType": "bytes4",
          "name": "interfaceId",
          "type": "bytes4"
        }
      ],
      "name": "supportsInterface",
      "outputs": [
        {
          "internalType": "bool",
          "name": "",
          "type": "bool"
        }
      ],
      "stateMutability": "view",
      "type": "function"
    },
    {
      "inputs": [],
      "name": "symbol",
      "outputs": [
        {
          "internalType": "string",
          "name": "",
          "type": "string"
        }
      ],
      "stateMutability": "view",
      "type": "function"
    },
    {
      "inputs": [
        {
          "internalType": "uint256",
          "name": "tokenId",
          "type": "uint256"
        }
      ],
      "name": "tokenURI",
      "outputs": [
        {
          "internalType": "string",
          "name": "",
          "type": "string"
        }
      ],
      "stateMutability": "view",
      "type": "function"
    },
    {
      "inputs": [
        {
          "internalType": "address",
          "name": "owner",
          "type": "address"
        }
      ],
      "name": "tokensOfOwner",
      "outputs": [
        {
          "internalType": "uint256[]",
          "name": "",
          "type": "uint256[]"
        }
      ],
      "stateMutability": "view",
      "type": "function"
    },
    {
      "inputs": [
        {
          "internalType": "address",
          "name": "owner",
          "type": "address"
        },
        {
          "internalType": "uint256",
          "name": "start",
          "type": "uint256"
        },
        {
          "internalType": "uint256",
          "name": "stop",
          "type": "uint256"
        }
      ],
      "name": "tokensOfOwnerIn",
      "outputs": [
        {
          "internalType": "uint256[]",
          "name": "",
          "type": "uint256[]"
        }
      ],
      "stateMutability": "view",
      "type": "function"
    },
    {
      "inputs": [],
      "name": "totalSupply",
      "outputs": [
        {
          "internalType": "uint256",
          "name": "result",
          "type": "uint256"
        }
      ],
      "stateMutability": "view",
      "type": "function"
    },
    {
      "inputs": [
        {
          "internalType": "address",
          "name": "from",
          "type": "address"
        },
        {
          "internalType": "address",
          "name": "to",
          "type": "address"
        },
        {
          "internalType": "uint256",
          "name": "tokenId",
          "type": "uint256"
        }
      ],
      "name": "transferFrom",
      "outputs": [],
      "stateMutability": "payable",
      "type": "function"
    }
  ],
  "bytecode": "0x60806040523480156200001157600080fd5b506040518060400160405280600881526020017f42617369634e46540000000000000000000000000000000000000000000000008152506040518060400160405280600481526020017f424e46540000000000000000000000000000000000000000000000000000000081525081600290816200008f9190620003b1565b508060039081620000a19190620003b1565b50620000b26200010060201b60201c565b600081905550620000c86200010060201b60201c565b620000d86200010560201b60201c565b1015620000f857620000f763fed8210f60e01b6200012d60201b60201c565b5b505062000498565b600090565b60007fffffffffffffffffffffffffffffffffffffffffffffffffffffffffffffffff905090565b8060005260046000fd5b600081519050919050565b7f4e487b7100000000000000000000000000000000000000000000000000000000600052604160045260246000fd5b7f4e487b7100000000000000000000000000000000000000000000000000000000600052602260045260246000fd5b60006002820490506001821680620001b957607f821691505b602082108103620001cf57620001ce62000171565b5b50919050565b60008190508160005260206000209050919050565b60006020601f8301049050919050565b600082821b905092915050565b600060088302620002397fffffffffffffffffffffffffffffffffffffffffffffffffffffffffffffffff82620001fa565b620002458683620001fa565b95508019841693508086168417925050509392505050565b6000819050919050565b6000819050919050565b6000620002926200028c62000286846200025d565b62000267565b6200025d565b9050919050565b6000819050919050565b620002ae8362000271565b620002c6620002bd8262000299565b84845462000207565b825550505050565b600090565b620002dd620002ce565b620002ea818484620002a3565b505050565b5b81811015620003125762000306600082620002d3565b600181019050620002f0565b5050565b601f82111562000361576200032b81620001d5565b6200033684620001ea565b8101602085101562000346578190505b6200035e6200035585620001ea565b830182620002ef565b50505b505050565b600082821c905092915050565b6000620003866000198460080262000366565b1980831691505092915050565b6000620003a1838362000373565b9150826002028217905092915050565b620003bc8262000137565b67ffffffffffffffff811115620003d857620003d762000142565b5b620003e48254620001a0565b620003f182828562000316565b600060209050601f83116001811462000429576000841562000414578287015190505b62000420858262000393565b86555062000490565b601f1984166200043986620001d5565b60005b8281101562000463578489015182556001820191506020850194506020810190506200043c565b868310156200048357848901516200047f601f89168262000373565b8355505b6001600288020188555050505b505050505050565b61257d80620004a86000396000f3fe6080604052600436106101145760003560e01c806370a08231116100a0578063a22cb46511610064578063a22cb465146103c2578063b88d4fde146103eb578063c23dc68f14610407578063c87b56dd14610444578063e985e9c51461048157610114565b806370a08231146102b75780638462151c146102f457806395d89b411461033157806399a2557a1461035c578063a14481941461039957610114565b806318160ddd116100e757806318160ddd146101da57806323b872dd1461020557806342842e0e146102215780635bbb21771461023d5780636352211e1461027a57610114565b806301ffc9a71461011957806306fdde0314610156578063081812fc14610181578063095ea7b3146101be575b600080fd5b34801561012557600080fd5b50610140600480360381019061013b9190611a29565b6104be565b60405161014d9190611a71565b60405180910390f35b34801561016257600080fd5b5061016b610550565b6040516101789190611b1c565b60405180910390f35b34801561018d57600080fd5b506101a860048036038101906101a39190611b74565b6105e2565b6040516101b59190611be2565b60405180910390f35b6101d860048036038101906101d39190611c29565b610640565b005b3480156101e657600080fd5b506101ef610650565b6040516101fc9190611c78565b60405180910390f35b61021f600480360381019061021a9190611c93565b61069d565b005b61023b60048036038101906102369190611c93565b61095e565b005b34801561024957600080fd5b50610264600480360381019061025f9190611d4b565b61097e565b6040516102719190611efb565b60405180910390f35b34801561028657600080fd5b506102a1600480360381019061029c9190611b74565b6109de565b6040516102ae9190611be2565b60405180910390f35b3480156102c357600080fd5b506102de60048036038101906102d99190611f1d565b6109f0565b6040516102eb9190611c78565b60405180910390f35b34801561030057600080fd5b5061031b60048036038101906103169190611f1d565b610a87565b6040516103289190612008565b60405180910390f35b34801561033d57600080fd5b50610346610b02565b6040516103539190611b1c565b60405180910390f35b34801561036857600080fd5b50610383600480360381019061037e919061202a565b610b94565b6040516103909190612008565b60405180910390f35b3480156103a557600080fd5b506103c060048036038101906103bb9190611c29565b610baa565b005b3480156103ce57600080fd5b506103e960048036038101906103e491906120a9565b610bb8565b005b61040560048036038101906104009190612219565b610cc3565b005b34801561041357600080fd5b5061042e60048036038101906104299190611b74565b610d15565b60405161043b91906122f1565b60405180910390f35b34801561045057600080fd5b5061046b60048036038101906104669190611b74565b610d8a565b6040516104789190611b1c565b60405180910390f35b34801561048d57600080fd5b506104a860048036038101906104a3919061230c565b610e07565b6040516104b59190611a71565b60405180910390f35b60006301ffc9a760e01b827bffffffffffffffffffffffffffffffffffffffffffffffffffffffff1916148061051957506380ac58cd60e01b827bffffffffffffffffffffffffffffffffffffffffffffffffffffffff1916145b806105495750635b5e139f60e01b827bffffffffffffffffffffffffffffffffffffffffffffffffffffffff1916145b9050919050565b60606002805461055f9061237b565b80601f016020809104026020016040519081016040528092919081815260200182805461058b9061237b565b80156105d85780601f106105ad576101008083540402835291602001916105d8565b820191906000526020600020905b8154815290600101906020018083116105bb57829003601f168201915b5050505050905090565b60006105ed82610e9b565b6106025761060163cf4700e460e01b610f47565b5b6006600083815260200190815260200160002060000160009054906101000a900473ffffffffffffffffffffffffffffffffffffffff169050919050565b61064c82826001610f51565b5050565b600061065a611080565b600154600054030390507fffffffffffffffffffffffffffffffffffffffffffffffffffffffffffffffff61068d611085565b1461069a57600854810190505b90565b60006106a8826110ad565b905073ffffffffffffffffffffffffffffffffffffffff8473ffffffffffffffffffffffffffffffffffffffff161693508373ffffffffffffffffffffffffffffffffffffffff168173ffffffffffffffffffffffffffffffffffffffff161461071d5761071c63a114810060e01b610f47565b5b600080610729846111c6565b9150915061073f818761073a6111ed565b6111f5565b61076a576107548661074f6111ed565b610e07565b610769576107686359c896be60e01b610f47565b5b5b6107778686866001611239565b801561078257600082555b600560008773ffffffffffffffffffffffffffffffffffffffff1673ffffffffffffffffffffffffffffffffffffffff168152602001908152602001600020600081546001900391905081905550600560008673ffffffffffffffffffffffffffffffffffffffff1673ffffffffffffffffffffffffffffffffffffffff16815260200190815260200160002060008154600101919050819055506108508561082c88888761123f565b7c020000000000000000000000000000000000000000000000000000000017611267565b600460008681526020019081526020016000208190555060007c02000000000000000000000000000000000000000000000000000000008416036108d657600060018501905060006004600083815260200190815260200160002054036108d45760005481146108d3578360046000838152602001908152602001600020819055505b5b505b600073ffffffffffffffffffffffffffffffffffffffff8673ffffffffffffffffffffffffffffffffffffffff161690508481887fddf252ad1be2c89b69c2b068fc378daa952ba7f163c4a11628f55a4df523b3ef600080a4600081036109485761094763ea553b3460e01b610f47565b5b6109558787876001611292565b50505050505050565b61097983838360405180602001604052806000815250610cc3565b505050565b606080600084849050905060405191508082528060051b90508060208301016040525b600081146109d357600060208203915081860135905060006109c282610d15565b9050808360208601015250506109a1565b819250505092915050565b60006109e9826110ad565b9050919050565b60008073ffffffffffffffffffffffffffffffffffffffff168273ffffffffffffffffffffffffffffffffffffffff1603610a3657610a35638f4eb60460e01b610f47565b5b67ffffffffffffffff600560008473ffffffffffffffffffffffffffffffffffffffff1673ffffffffffffffffffffffffffffffffffffffff16815260200190815260200160002054169050919050565b60607fffffffffffffffffffffffffffffffffffffffffffffffffffffffffffffffff610ab2611085565b14610ac857610ac763bdba09d760e01b610f47565b5b6000610ad2611080565b90506000610ade611298565b90506060818314610af757610af48584846112a1565b90505b809350505050919050565b606060038054610b119061237b565b80601f0160208091040260200160405190810160405280929190818152602001828054610b3d9061237b565b8015610b8a5780601f10610b5f57610100808354040283529160200191610b8a565b820191906000526020600020905b815481529060010190602001808311610b6d57829003601f168201915b5050505050905090565b6060610ba18484846112a1565b90509392505050565b610bb4828261145d565b5050565b8060076000610bc56111ed565b73ffffffffffffffffffffffffffffffffffffffff1673ffffffffffffffffffffffffffffffffffffffff16815260200190815260200160002060008473ffffffffffffffffffffffffffffffffffffffff1673ffffffffffffffffffffffffffffffffffffffff16815260200190815260200160002060006101000a81548160ff0219169083151502179055508173ffffffffffffffffffffffffffffffffffffffff16610c726111ed565b73ffffffffffffffffffffffffffffffffffffffff167f17307eab39ab6107e8899845ad3d59bd9653f200f220920489ca2b5937696c3183604051610cb79190611a71565b60405180910390a35050565b610cce84848461069d565b60008373ffffffffffffffffffffffffffffffffffffffff163b14610d0f57610cf98484848461147b565b610d0e57610d0d63d1a57ed660e01b610f47565b5b5b50505050565b610d1d61196e565b610d25611080565b8210610d8457610d33611085565b821115610d4a57610d43826115aa565b9050610d85565b610d52611298565b821015610d83575b610d63826115d5565b610d735781600190039150610d5a565b610d7c826115aa565b9050610d85565b5b5b919050565b6060610d9582610e9b565b610daa57610da963a14c4b5060e01b610f47565b5b6000610db46115f5565b90506000815103610dd45760405180602001604052806000815250610dff565b80610dde8461160c565b604051602001610def9291906123e8565b6040516020818303038152906040525b915050919050565b6000600760008473ffffffffffffffffffffffffffffffffffffffff1673ffffffffffffffffffffffffffffffffffffffff16815260200190815260200160002060008373ffffffffffffffffffffffffffffffffffffffff1673ffffffffffffffffffffffffffffffffffffffff16815260200190815260200160002060009054906101000a900460ff16905092915050565b600081610ea6611080565b11610f4157610eb3611085565b821115610edd57610ed6600460008481526020019081526020016000205461165c565b9050610f42565b600054821015610f405760005b6000600460008581526020019081526020016000205491508103610f195782610f129061243b565b9250610eea565b60007c01000000000000000000000000000000000000000000000000000000008216149150505b5b5b919050565b8060005260046000fd5b6000610f5c836109de565b9050818015610f9e57508073ffffffffffffffffffffffffffffffffffffffff16610f856111ed565b73ffffffffffffffffffffffffffffffffffffffff1614155b15610fca57610fb481610faf6111ed565b610e07565b610fc957610fc863cfb3b94260e01b610f47565b5b5b836006600085815260200190815260200160002060000160006101000a81548173ffffffffffffffffffffffffffffffffffffffff021916908373ffffffffffffffffffffffffffffffffffffffff160217905550828473ffffffffffffffffffffffffffffffffffffffff168273ffffffffffffffffffffffffffffffffffffffff167f8c5be1e5ebec7d5bd14f71427d1e84f3dd0314c0f7b2291e5b200ac8c7c3b92560405160405180910390a450505050565b600090565b60007fffffffffffffffffffffffffffffffffffffffffffffffffffffffffffffffff905090565b6000816110b8611080565b116111b057600460008381526020019081526020016000205490506110db611085565b821115611100576110eb8161165c565b6111c1576110ff63df2d9b4260e01b610f47565b5b600081036111875760005482106111225761112163df2d9b4260e01b610f47565b5b5b600460008360019003935083815260200190815260200160002054905060008103156111825760007c0100000000000000000000000000000000000000000000000000000000821603156111c15761118163df2d9b4260e01b610f47565b5b611123565b60007c0100000000000000000000000000000000000000000000000000000000821603156111c1575b6111c063df2d9b4260e01b610f47565b5b919050565b60008060006006600085815260200190815260200160002090508092508254915050915091565b600033905090565b600073ffffffffffffffffffffffffffffffffffffffff8316925073ffffffffffffffffffffffffffffffffffffffff821691508382148383141790509392505050565b50505050565b60008060e883901c905060e861125686868461169d565b62ffffff16901b9150509392505050565b600073ffffffffffffffffffffffffffffffffffffffff83169250814260a01b178317905092915050565b50505050565b60008054905090565b60608183106112bb576112ba6332c1995a60e01b610f47565b5b6112c3611080565b8310156112d5576112d2611080565b92505b60006112df611298565b905060007fffffffffffffffffffffffffffffffffffffffffffffffffffffffffffffffff61130c611085565b036113175781611319565b835b9050808410611326578093505b6000611331876109f0565b905084861061133f57600090505b600081146114535780868603116113565785850390505b600060405194506001820160051b8501905080604052600061137788610d15565b90506000816040015161138c57816000015190505b60005b7fffffffffffffffffffffffffffffffffffffffffffffffffffffffffffffffff6113b8611085565b146113e757868a036113d25760016113ce611085565b0199505b6113da611085565b8a11156113e657600091505b5b6113f08a6115aa565b9250604083015160008114611408576000925061142e565b83511561141457835192505b8b831860601b61142d576001820191508a8260051b8a01525b5b5060018a01995083604052888a148061144657508481145b1561138f57808852505050505b5050509392505050565b6114778282604051806020016040528060008152506116a6565b5050565b60008373ffffffffffffffffffffffffffffffffffffffff1663150b7a026114a16111ed565b8786866040518563ffffffff1660e01b81526004016114c394939291906124b9565b6020604051808303816000875af19250505080156114ff57506040513d601f19601f820116820180604052508101906114fc919061251a565b60015b611557573d806000811461152f576040519150601f19603f3d011682016040523d82523d6000602084013e611534565b606091505b50600081510361154f5761154e63d1a57ed660e01b610f47565b5b805181602001fd5b63150b7a0260e01b7bffffffffffffffffffffffffffffffffffffffffffffffffffffffff1916817bffffffffffffffffffffffffffffffffffffffffffffffffffffffff191614915050949350505050565b6115b261196e565b6115ce6004600084815260200190815260200160002054611722565b9050919050565b600080600460008481526020019081526020016000205414159050919050565b606060405180602001604052806000815250905090565b606060a060405101806040526020810391506000825281835b60011561164757600184039350600a81066030018453600a8104905080611625575b50828103602084039350808452505050919050565b60007c0100000000000000000000000000000000000000000000000000000000821673ffffffffffffffffffffffffffffffffffffffff8316119050919050565b60009392505050565b6116b083836117d8565b60008373ffffffffffffffffffffffffffffffffffffffff163b1461171d57600080549050600083820390505b6116f0600086838060010194508661147b565b6117055761170463d1a57ed660e01b610f47565b5b8181106116dd57816000541461171a57600080fd5b50505b505050565b61172a61196e565b81816000019073ffffffffffffffffffffffffffffffffffffffff16908173ffffffffffffffffffffffffffffffffffffffff168152505060a082901c816020019067ffffffffffffffff16908167ffffffffffffffff168152505060007c01000000000000000000000000000000000000000000000000000000008316141581604001901515908115158152505060e882901c816060019062ffffff16908162ffffff1681525050919050565b600080549050600082036117f7576117f663b562e8dd60e01b610f47565b5b6118046000848385611239565b61182483611815600086600061123f565b61181e8561195e565b17611267565b6004600083815260200190815260200160002081905550600160406001901b178202600560008573ffffffffffffffffffffffffffffffffffffffff1673ffffffffffffffffffffffffffffffffffffffff16815260200190815260200160002060008282540192505081905550600073ffffffffffffffffffffffffffffffffffffffff8473ffffffffffffffffffffffffffffffffffffffff16169050600081036118dc576118db632e07630060e01b610f47565b5b6000838301905060008390506118f0611085565b60018303111561190b5761190a6381647e3a60e01b610f47565b5b5b808360007fddf252ad1be2c89b69c2b068fc378daa952ba7f163c4a11628f55a4df523b3ef600080a481816001019150810361190c57816000819055505050506119596000848385611292565b505050565b60006001821460e11b9050919050565b6040518060800160405280600073ffffffffffffffffffffffffffffffffffffffff168152602001600067ffffffffffffffff168152602001600015158152602001600062ffffff1681525090565b6000604051905090565b600080fd5b600080fd5b60007fffffffff0000000000000000000000000000000000000000000000000000000082169050919050565b611a06816119d1565b8114611a1157600080fd5b50565b600081359050611a23816119fd565b92915050565b600060208284031215611a3f57611a3e6119c7565b5b6000611a4d84828501611a14565b91505092915050565b60008115159050919050565b611a6b81611a56565b82525050565b6000602082019050611a866000830184611a62565b92915050565b600081519050919050565b600082825260208201905092915050565b60005b83811015611ac6578082015181840152602081019050611aab565b60008484015250505050565b6000601f19601f8301169050919050565b6000611aee82611a8c565b611af88185611a97565b9350611b08818560208601611aa8565b611b1181611ad2565b840191505092915050565b60006020820190508181036000830152611b368184611ae3565b905092915050565b6000819050919050565b611b5181611b3e565b8114611b5c57600080fd5b50565b600081359050611b6e81611b48565b92915050565b600060208284031215611b8a57611b896119c7565b5b6000611b9884828501611b5f565b91505092915050565b600073ffffffffffffffffffffffffffffffffffffffff82169050919050565b6000611bcc82611ba1565b9050919050565b611bdc81611bc1565b82525050565b6000602082019050611bf76000830184611bd3565b92915050565b611c0681611bc1565b8114611c1157600080fd5b50565b600081359050611c2381611bfd565b92915050565b60008060408385031215611c4057611c3f6119c7565b5b6000611c4e85828601611c14565b9250506020611c5f85828601611b5f565b9150509250929050565b611c7281611b3e565b82525050565b6000602082019050611c8d6000830184611c69565b92915050565b600080600060608486031215611cac57611cab6119c7565b5b6000611cba86828701611c14565b9350506020611ccb86828701611c14565b9250506040611cdc86828701611b5f565b9150509250925092565b600080fd5b600080fd5b600080fd5b60008083601f840112611d0b57611d0a611ce6565b5b8235905067ffffffffffffffff811115611d2857611d27611ceb565b5b602083019150836020820283011115611d4457611d43611cf0565b5b9250929050565b60008060208385031215611d6257611d616119c7565b5b600083013567ffffffffffffffff811115611d8057611d7f6119cc565b5b611d8c85828601611cf5565b92509250509250929050565b600081519050919050565b600082825260208201905092915050565b6000819050602082019050919050565b611dcd81611bc1565b82525050565b600067ffffffffffffffff82169050919050565b611df081611dd3565b82525050565b611dff81611a56565b82525050565b600062ffffff82169050919050565b611e1d81611e05565b82525050565b608082016000820151611e396000850182611dc4565b506020820151611e4c6020850182611de7565b506040820151611e5f6040850182611df6565b506060820151611e726060850182611e14565b50505050565b6000611e848383611e23565b60808301905092915050565b6000602082019050919050565b6000611ea882611d98565b611eb28185611da3565b9350611ebd83611db4565b8060005b83811015611eee578151611ed58882611e78565b9750611ee083611e90565b925050600181019050611ec1565b5085935050505092915050565b60006020820190508181036000830152611f158184611e9d565b905092915050565b600060208284031215611f3357611f326119c7565b5b6000611f4184828501611c14565b91505092915050565b600081519050919050565b600082825260208201905092915050565b6000819050602082019050919050565b611f7f81611b3e565b82525050565b6000611f918383611f76565b60208301905092915050565b6000602082019050919050565b6000611fb582611f4a565b611fbf8185611f55565b9350611fca83611f66565b8060005b83811015611ffb578151611fe28882611f85565b9750611fed83611f9d565b925050600181019050611fce565b5085935050505092915050565b600060208201905081810360008301526120228184611faa565b905092915050565b600080600060608486031215612043576120426119c7565b5b600061205186828701611c14565b935050602061206286828701611b5f565b925050604061207386828701611b5f565b9150509250925092565b61208681611a56565b811461209157600080fd5b50565b6000813590506120a38161207d565b92915050565b600080604083850312156120c0576120bf6119c7565b5b60006120ce85828601611c14565b92505060206120df85828601612094565b9150509250929050565b600080fd5b7f4e487b7100000000000000000000000000000000000000000000000000000000600052604160045260246000fd5b61212682611ad2565b810181811067ffffffffffffffff82111715612145576121446120ee565b5b80604052505050565b60006121586119bd565b9050612164828261211d565b919050565b600067ffffffffffffffff821115612184576121836120ee565b5b61218d82611ad2565b9050602081019050919050565b82818337600083830152505050565b60006121bc6121b784612169565b61214e565b9050828152602081018484840111156121d8576121d76120e9565b5b6121e384828561219a565b509392505050565b600082601f830112612200576121ff611ce6565b5b81356122108482602086016121a9565b91505092915050565b60008060008060808587031215612233576122326119c7565b5b600061224187828801611c14565b945050602061225287828801611c14565b935050604061226387828801611b5f565b925050606085013567ffffffffffffffff811115612284576122836119cc565b5b612290878288016121eb565b91505092959194509250565b6080820160008201516122b26000850182611dc4565b5060208201516122c56020850182611de7565b5060408201516122d86040850182611df6565b5060608201516122eb6060850182611e14565b50505050565b6000608082019050612306600083018461229c565b92915050565b60008060408385031215612323576123226119c7565b5b600061233185828601611c14565b925050602061234285828601611c14565b9150509250929050565b7f4e487b7100000000000000000000000000000000000000000000000000000000600052602260045260246000fd5b6000600282049050600182168061239357607f821691505b6020821081036123a6576123a561234c565b5b50919050565b600081905092915050565b60006123c282611a8c565b6123cc81856123ac565b93506123dc818560208601611aa8565b80840191505092915050565b60006123f482856123b7565b915061240082846123b7565b91508190509392505050565b7f4e487b7100000000000000000000000000000000000000000000000000000000600052601160045260246000fd5b600061244682611b3e565b9150600082036124595761245861240c565b5b600182039050919050565b600081519050919050565b600082825260208201905092915050565b600061248b82612464565b612495818561246f565b93506124a5818560208601611aa8565b6124ae81611ad2565b840191505092915050565b60006080820190506124ce6000830187611bd3565b6124db6020830186611bd3565b6124e86040830185611c69565b81810360608301526124fa8184612480565b905095945050505050565b600081519050612514816119fd565b92915050565b6000602082840312156125305761252f6119c7565b5b600061253e84828501612505565b9150509291505056fea2646970667358221220ec060c59d342f100e80042ca269ab60e56980d214d20417d7deb66c180c14a5b64736f6c63430008180033",
  "linkReferences": {},
  "deployedLinkReferences": {}
}