{
  "_format": "hh-sol-artifact-1",
  "contractName": "Banker",
  "sourceName": "contracts/Banker.sol",
  "abi": [
    {
      "inputs": [
        {
          "internalType": "address",
          "name": "_stakableToken",
          "type": "address"
        },
        {
          "internalType": "address",
          "name": "_lendableToken",
          "type": "address"
        },
        {
          "internalType": "uint256",
          "name": "_loanAmount",
          "type": "uint256"
        }
      ],
      "stateMutability": "nonpayable",
      "type": "constructor"
    },
    {
      "inputs": [],
      "name": "ApprovalCallerNotOwnerNorApproved",
      "type": "error"
    },
    {
      "inputs": [],
      "name": "ApprovalQueryForNonexistentToken",
      "type": "error"
    },
    {
      "inputs": [],
      "name": "BalanceQueryForZeroAddress",
      "type": "error"
    },
    {
      "inputs": [],
      "name": "InvalidQueryRange",
      "type": "error"
    },
    {
      "inputs": [],
      "name": "MintERC2309QuantityExceedsLimit",
      "type": "error"
    },
    {
      "inputs": [],
      "name": "MintToZeroAddress",
      "type": "error"
    },
    {
      "inputs": [],
      "name": "MintZeroQuantity",
      "type": "error"
    },
    {
      "inputs": [],
      "name": "NotCompatibleWithSpotMints",
      "type": "error"
    },
    {
      "inputs": [],
      "name": "OwnerQueryForNonexistentToken",
      "type": "error"
    },
    {
      "inputs": [],
      "name": "OwnershipNotInitializedForExtraData",
      "type": "error"
    },
    {
      "inputs": [],
      "name": "SequentialMintExceedsLimit",
      "type": "error"
    },
    {
      "inputs": [],
      "name": "SequentialUpToTooSmall",
      "type": "error"
    },
    {
      "inputs": [],
      "name": "SpotMintTokenIdTooSmall",
      "type": "error"
    },
    {
      "inputs": [],
      "name": "TokenAlreadyExists",
      "type": "error"
    },
    {
      "inputs": [],
      "name": "TransferCallerNotOwnerNorApproved",
      "type": "error"
    },
    {
      "inputs": [],
      "name": "TransferFromIncorrectOwner",
      "type": "error"
    },
    {
      "inputs": [],
      "name": "TransferToNonERC721ReceiverImplementer",
      "type": "error"
    },
    {
      "inputs": [],
      "name": "TransferToZeroAddress",
      "type": "error"
    },
    {
      "inputs": [],
      "name": "URIQueryForNonexistentToken",
      "type": "error"
    },
    {
      "anonymous": false,
      "inputs": [
        {
          "indexed": true,
          "internalType": "address",
          "name": "owner",
          "type": "address"
        },
        {
          "indexed": true,
          "internalType": "address",
          "name": "approved",
          "type": "address"
        },
        {
          "indexed": true,
          "internalType": "uint256",
          "name": "tokenId",
          "type": "uint256"
        }
      ],
      "name": "Approval",
      "type": "event"
    },
    {
      "anonymous": false,
      "inputs": [
        {
          "indexed": true,
          "internalType": "address",
          "name": "owner",
          "type": "address"
        },
        {
          "indexed": true,
          "internalType": "address",
          "name": "operator",
          "type": "address"
        },
        {
          "indexed": false,
          "internalType": "bool",
          "name": "approved",
          "type": "bool"
        }
      ],
      "name": "ApprovalForAll",
      "type": "event"
    },
    {
      "anonymous": false,
      "inputs": [
        {
          "indexed": true,
          "internalType": "uint256",
          "name": "fromTokenId",
          "type": "uint256"
        },
        {
          "indexed": false,
          "internalType": "uint256",
          "name": "toTokenId",
          "type": "uint256"
        },
        {
          "indexed": true,
          "internalType": "address",
          "name": "from",
          "type": "address"
        },
        {
          "indexed": true,
          "internalType": "address",
          "name": "to",
          "type": "address"
        }
      ],
      "name": "ConsecutiveTransfer",
      "type": "event"
    },
    {
      "anonymous": false,
      "inputs": [
        {
          "indexed": true,
          "internalType": "address",
          "name": "from",
          "type": "address"
        },
        {
          "indexed": true,
          "internalType": "address",
          "name": "to",
          "type": "address"
        },
        {
          "indexed": true,
          "internalType": "uint256",
          "name": "tokenId",
          "type": "uint256"
        }
      ],
      "name": "Transfer",
      "type": "event"
    },
    {
      "inputs": [],
      "name": "LOAN_AMOUNT",
      "outputs": [
        {
          "internalType": "uint256",
          "name": "",
          "type": "uint256"
        }
      ],
      "stateMutability": "view",
      "type": "function"
    },
    {
      "inputs": [
        {
          "internalType": "uint256",
          "name": "amount",
          "type": "uint256"
        }
      ],
      "name": "addFunding",
      "outputs": [],
      "stateMutability": "nonpayable",
      "type": "function"
    },
    {
      "inputs": [
        {
          "internalType": "address",
          "name": "to",
          "type": "address"
        },
        {
          "internalType": "uint256",
          "name": "tokenId",
          "type": "uint256"
        }
      ],
      "name": "approve",
      "outputs": [],
      "stateMutability": "payable",
      "type": "function"
    },
    {
      "inputs": [],
      "name": "availableForLending",
      "outputs": [
        {
          "internalType": "uint256",
          "name": "",
          "type": "uint256"
        }
      ],
      "stateMutability": "view",
      "type": "function"
    },
    {
      "inputs": [
        {
          "internalType": "address",
          "name": "owner",
          "type": "address"
        }
      ],
      "name": "balanceOf",
      "outputs": [
        {
          "internalType": "uint256",
          "name": "",
          "type": "uint256"
        }
      ],
      "stateMutability": "view",
      "type": "function"
    },
    {
      "inputs": [
        {
          "internalType": "uint256",
          "name": "tokenId",
          "type": "uint256"
        }
      ],
      "name": "borrow",
      "outputs": [],
      "stateMutability": "nonpayable",
      "type": "function"
    },
    {
      "inputs": [
        {
          "internalType": "uint256",
          "name": "tokenId",
          "type": "uint256"
        }
      ],
      "name": "explicitOwnershipOf",
      "outputs": [
        {
          "components": [
            {
              "internalType": "address",
              "name": "addr",
              "type": "address"
            },
            {
              "internalType": "uint64",
              "name": "startTimestamp",
              "type": "uint64"
            },
            {
              "internalType": "bool",
              "name": "burned",
              "type": "bool"
            },
            {
              "internalType": "uint24",
              "name": "extraData",
              "type": "uint24"
            }
          ],
          "internalType": "struct IERC721A.TokenOwnership",
          "name": "ownership",
          "type": "tuple"
        }
      ],
      "stateMutability": "view",
      "type": "function"
    },
    {
      "inputs": [
        {
          "internalType": "uint256[]",
          "name": "tokenIds",
          "type": "uint256[]"
        }
      ],
      "name": "explicitOwnershipsOf",
      "outputs": [
        {
          "components": [
            {
              "internalType": "address",
              "name": "addr",
              "type": "address"
            },
            {
              "internalType": "uint64",
              "name": "startTimestamp",
              "type": "uint64"
            },
            {
              "internalType": "bool",
              "name": "burned",
              "type": "bool"
            },
            {
              "internalType": "uint24",
              "name": "extraData",
              "type": "uint24"
            }
          ],
          "internalType": "struct IERC721A.TokenOwnership[]",
          "name": "",
          "type": "tuple[]"
        }
      ],
      "stateMutability": "view",
      "type": "function"
    },
    {
      "inputs": [
        {
          "internalType": "uint256",
          "name": "tokenId",
          "type": "uint256"
        }
      ],
      "name": "getApproved",
      "outputs": [
        {
          "internalType": "address",
          "name": "",
          "type": "address"
        }
      ],
      "stateMutability": "view",
      "type": "function"
    },
    {
      "inputs": [
        {
          "internalType": "address",
          "name": "owner",
          "type": "address"
        },
        {
          "internalType": "address",
          "name": "operator",
          "type": "address"
        }
      ],
      "name": "isApprovedForAll",
      "outputs": [
        {
          "internalType": "bool",
          "name": "",
          "type": "bool"
        }
      ],
      "stateMutability": "view",
      "type": "function"
    },
    {
      "inputs": [],
      "name": "lendableToken",
      "outputs": [
        {
          "internalType": "contract ERC20",
          "name": "",
          "type": "address"
        }
      ],
      "stateMutability": "view",
      "type": "function"
    },
    {
      "inputs": [],
      "name": "name",
      "outputs": [
        {
          "internalType": "string",
          "name": "",
          "type": "string"
        }
      ],
      "stateMutability": "view",
      "type": "function"
    },
    {
      "inputs": [
        {
          "internalType": "uint256",
          "name": "tokenId",
          "type": "uint256"
        }
      ],
      "name": "ownerOf",
      "outputs": [
        {
          "internalType": "address",
          "name": "",
          "type": "address"
        }
      ],
      "stateMutability": "view",
      "type": "function"
    },
    {
      "inputs": [
        {
          "internalType": "uint256",
          "name": "tokenId",
          "type": "uint256"
        }
      ],
      "name": "repay",
      "outputs": [],
      "stateMutability": "nonpayable",
      "type": "function"
    },
    {
      "inputs": [
        {
          "internalType": "address",
          "name": "from",
          "type": "address"
        },
        {
          "internalType": "address",
          "name": "to",
          "type": "address"
        },
        {
          "internalType": "uint256",
          "name": "tokenId",
          "type": "uint256"
        }
      ],
      "name": "safeTransferFrom",
      "outputs": [],
      "stateMutability": "payable",
      "type": "function"
    },
    {
      "inputs": [
        {
          "internalType": "address",
          "name": "from",
          "type": "address"
        },
        {
          "internalType": "address",
          "name": "to",
          "type": "address"
        },
        {
          "internalType": "uint256",
          "name": "tokenId",
          "type": "uint256"
        },
        {
          "internalType": "bytes",
          "name": "_data",
          "type": "bytes"
        }
      ],
      "name": "safeTransferFrom",
      "outputs": [],
      "stateMutability": "payable",
      "type": "function"
    },
    {
      "inputs": [
        {
          "internalType": "address",
          "name": "operator",
          "type": "address"
        },
        {
          "internalType": "bool",
          "name": "approved",
          "type": "bool"
        }
      ],
      "name": "setApprovalForAll",
      "outputs": [],
      "stateMutability": "nonpayable",
      "type": "function"
    },
    {
      "inputs": [],
      "name": "stakableToken",
      "outputs": [
        {
          "internalType": "contract ERC721AQueryable",
          "name": "",
          "type": "address"
        }
      ],
      "stateMutability": "view",
      "type": "function"
    },
    {
      "inputs": [
        {
          "internalType": "bytes4",
          "name": "interfaceId",
          "type": "bytes4"
        }
      ],
      "name": "supportsInterface",
      "outputs": [
        {
          "internalType": "bool",
          "name": "",
          "type": "bool"
        }
      ],
      "stateMutability": "view",
      "type": "function"
    },
    {
      "inputs": [],
      "name": "symbol",
      "outputs": [
        {
          "internalType": "string",
          "name": "",
          "type": "string"
        }
      ],
      "stateMutability": "view",
      "type": "function"
    },
    {
      "inputs": [
        {
          "internalType": "uint256",
          "name": "tokenId",
          "type": "uint256"
        }
      ],
      "name": "tokenURI",
      "outputs": [
        {
          "internalType": "string",
          "name": "",
          "type": "string"
        }
      ],
      "stateMutability": "view",
      "type": "function"
    },
    {
      "inputs": [
        {
          "internalType": "address",
          "name": "owner",
          "type": "address"
        }
      ],
      "name": "tokensOfOwner",
      "outputs": [
        {
          "internalType": "uint256[]",
          "name": "",
          "type": "uint256[]"
        }
      ],
      "stateMutability": "view",
      "type": "function"
    },
    {
      "inputs": [
        {
          "internalType": "address",
          "name": "owner",
          "type": "address"
        },
        {
          "internalType": "uint256",
          "name": "start",
          "type": "uint256"
        },
        {
          "internalType": "uint256",
          "name": "stop",
          "type": "uint256"
        }
      ],
      "name": "tokensOfOwnerIn",
      "outputs": [
        {
          "internalType": "uint256[]",
          "name": "",
          "type": "uint256[]"
        }
      ],
      "stateMutability": "view",
      "type": "function"
    },
    {
      "inputs": [],
      "name": "totalSupply",
      "outputs": [
        {
          "internalType": "uint256",
          "name": "result",
          "type": "uint256"
        }
      ],
      "stateMutability": "view",
      "type": "function"
    },
    {
      "inputs": [
        {
          "internalType": "address",
          "name": "from",
          "type": "address"
        },
        {
          "internalType": "address",
          "name": "to",
          "type": "address"
        },
        {
          "internalType": "uint256",
          "name": "tokenId",
          "type": "uint256"
        }
      ],
      "name": "transferFrom",
      "outputs": [],
      "stateMutability": "payable",
      "type": "function"
    }
  ],
  "bytecode": "0x60806040523480156200001157600080fd5b5060405162003b0238038062003b0283398181016040528101906200003791906200028d565b6040518060400160405280600e81526020017f5374616b656442617369634e46540000000000000000000000000000000000008152506040518060400160405280600581526020017f73424e46540000000000000000000000000000000000000000000000000000008152508160029081620000b4919062000559565b508060039081620000c6919062000559565b50620000d7620001b160201b60201c565b600081905550620000ed620001b160201b60201c565b620000fd620001b660201b60201c565b10156200011d576200011c63fed8210f60e01b620001de60201b60201c565b5b505082600960006101000a81548173ffffffffffffffffffffffffffffffffffffffff021916908373ffffffffffffffffffffffffffffffffffffffff16021790555081600a60006101000a81548173ffffffffffffffffffffffffffffffffffffffff021916908373ffffffffffffffffffffffffffffffffffffffff16021790555080600b8190555050505062000640565b600090565b60007fffffffffffffffffffffffffffffffffffffffffffffffffffffffffffffffff905090565b8060005260046000fd5b600080fd5b600073ffffffffffffffffffffffffffffffffffffffff82169050919050565b60006200021a82620001ed565b9050919050565b6200022c816200020d565b81146200023857600080fd5b50565b6000815190506200024c8162000221565b92915050565b6000819050919050565b620002678162000252565b81146200027357600080fd5b50565b60008151905062000287816200025c565b92915050565b600080600060608486031215620002a957620002a8620001e8565b5b6000620002b9868287016200023b565b9350506020620002cc868287016200023b565b9250506040620002df8682870162000276565b9150509250925092565b600081519050919050565b7f4e487b7100000000000000000000000000000000000000000000000000000000600052604160045260246000fd5b7f4e487b7100000000000000000000000000000000000000000000000000000000600052602260045260246000fd5b600060028204905060018216806200036b57607f821691505b60208210810362000381576200038062000323565b5b50919050565b60008190508160005260206000209050919050565b60006020601f8301049050919050565b600082821b905092915050565b600060088302620003eb7fffffffffffffffffffffffffffffffffffffffffffffffffffffffffffffffff82620003ac565b620003f78683620003ac565b95508019841693508086168417925050509392505050565b6000819050919050565b60006200043a620004346200042e8462000252565b6200040f565b62000252565b9050919050565b6000819050919050565b620004568362000419565b6200046e620004658262000441565b848454620003b9565b825550505050565b600090565b6200048562000476565b620004928184846200044b565b505050565b5b81811015620004ba57620004ae6000826200047b565b60018101905062000498565b5050565b601f8211156200050957620004d38162000387565b620004de846200039c565b81016020851015620004ee578190505b62000506620004fd856200039c565b83018262000497565b50505b505050565b600082821c905092915050565b60006200052e600019846008026200050e565b1980831691505092915050565b60006200054983836200051b565b9150826002028217905092915050565b6200056482620002e9565b67ffffffffffffffff81111562000580576200057f620002f4565b5b6200058c825462000352565b62000599828285620004be565b600060209050601f831160018114620005d15760008415620005bc578287015190505b620005c885826200053b565b86555062000638565b601f198416620005e18662000387565b60005b828110156200060b57848901518255600182019150602085019450602081019050620005e4565b868310156200062b578489015162000627601f8916826200051b565b8355505b6001600288020188555050505b505050505050565b6134b280620006506000396000f3fe6080604052600436106101665760003560e01c80636352211e116100d1578063a22cb4651161008a578063c23dc68f11610064578063c23dc68f1461052e578063c5ebeaec1461056b578063c87b56dd14610594578063e985e9c5146105d157610166565b8063a22cb465146104be578063abad6ca6146104e7578063b88d4fde1461051257610166565b80636352211e1461037457806370a08231146103b15780638462151c146103ee57806395d89b411461042b57806396ab40101461045657806399a2557a1461048157610166565b80631c96c3fb116101235780631c96c3fb1461028257806323b872dd146102ad578063371fd8e6146102c957806342842e0e146102f25780635bbb21771461030e5780635d5d46131461034b57610166565b806301ffc9a71461016b57806306fdde03146101a8578063081812fc146101d3578063095ea7b314610210578063153f47d71461022c57806318160ddd14610257575b600080fd5b34801561017757600080fd5b50610192600480360381019061018d91906124f8565b61060e565b60405161019f9190612540565b60405180910390f35b3480156101b457600080fd5b506101bd6106a0565b6040516101ca91906125eb565b60405180910390f35b3480156101df57600080fd5b506101fa60048036038101906101f59190612643565b610732565b60405161020791906126b1565b60405180910390f35b61022a600480360381019061022591906126f8565b610790565b005b34801561023857600080fd5b506102416107a0565b60405161024e9190612747565b60405180910390f35b34801561026357600080fd5b5061026c6107a6565b6040516102799190612747565b60405180910390f35b34801561028e57600080fd5b506102976107f3565b6040516102a491906127c1565b60405180910390f35b6102c760048036038101906102c291906127dc565b610819565b005b3480156102d557600080fd5b506102f060048036038101906102eb9190612643565b610ada565b005b61030c600480360381019061030791906127dc565b610dcb565b005b34801561031a57600080fd5b5061033560048036038101906103309190612894565b610deb565b6040516103429190612a44565b60405180910390f35b34801561035757600080fd5b50610372600480360381019061036d9190612643565b610e4b565b005b34801561038057600080fd5b5061039b60048036038101906103969190612643565b610f0a565b6040516103a891906126b1565b60405180910390f35b3480156103bd57600080fd5b506103d860048036038101906103d39190612a66565b610f1c565b6040516103e59190612747565b60405180910390f35b3480156103fa57600080fd5b5061041560048036038101906104109190612a66565b610fb3565b6040516104229190612b51565b60405180910390f35b34801561043757600080fd5b5061044061102e565b60405161044d91906125eb565b60405180910390f35b34801561046257600080fd5b5061046b6110c0565b6040516104789190612747565b60405180910390f35b34801561048d57600080fd5b506104a860048036038101906104a39190612b73565b6110c6565b6040516104b59190612b51565b60405180910390f35b3480156104ca57600080fd5b506104e560048036038101906104e09190612bf2565b6110dc565b005b3480156104f357600080fd5b506104fc6111e7565b6040516105099190612c53565b60405180910390f35b61052c60048036038101906105279190612d9e565b61120d565b005b34801561053a57600080fd5b5061055560048036038101906105509190612643565b61125f565b6040516105629190612e76565b60405180910390f35b34801561057757600080fd5b50610592600480360381019061058d9190612643565b6112d4565b005b3480156105a057600080fd5b506105bb60048036038101906105b69190612643565b61161a565b6040516105c891906125eb565b60405180910390f35b3480156105dd57600080fd5b506105f860048036038101906105f39190612e91565b611697565b6040516106059190612540565b60405180910390f35b60006301ffc9a760e01b827bffffffffffffffffffffffffffffffffffffffffffffffffffffffff1916148061066957506380ac58cd60e01b827bffffffffffffffffffffffffffffffffffffffffffffffffffffffff1916145b806106995750635b5e139f60e01b827bffffffffffffffffffffffffffffffffffffffffffffffffffffffff1916145b9050919050565b6060600280546106af90612f00565b80601f01602080910402602001604051908101604052809291908181526020018280546106db90612f00565b80156107285780601f106106fd57610100808354040283529160200191610728565b820191906000526020600020905b81548152906001019060200180831161070b57829003601f168201915b5050505050905090565b600061073d8261172b565b6107525761075163cf4700e460e01b6117d7565b5b6006600083815260200190815260200160002060000160009054906101000a900473ffffffffffffffffffffffffffffffffffffffff169050919050565b61079c828260016117e1565b5050565b600c5481565b60006107b0611910565b600154600054030390507fffffffffffffffffffffffffffffffffffffffffffffffffffffffffffffffff6107e3611915565b146107f057600854810190505b90565b600960009054906101000a900473ffffffffffffffffffffffffffffffffffffffff1681565b60006108248261193d565b905073ffffffffffffffffffffffffffffffffffffffff8473ffffffffffffffffffffffffffffffffffffffff161693508373ffffffffffffffffffffffffffffffffffffffff168173ffffffffffffffffffffffffffffffffffffffff16146108995761089863a114810060e01b6117d7565b5b6000806108a584611a56565b915091506108bb81876108b6611a7d565b611a85565b6108e6576108d0866108cb611a7d565b611697565b6108e5576108e46359c896be60e01b6117d7565b5b5b6108f38686866001611ac9565b80156108fe57600082555b600560008773ffffffffffffffffffffffffffffffffffffffff1673ffffffffffffffffffffffffffffffffffffffff168152602001908152602001600020600081546001900391905081905550600560008673ffffffffffffffffffffffffffffffffffffffff1673ffffffffffffffffffffffffffffffffffffffff16815260200190815260200160002060008154600101919050819055506109cc856109a8888887611acf565b7c020000000000000000000000000000000000000000000000000000000017611af7565b600460008681526020019081526020016000208190555060007c0200000000000000000000000000000000000000000000000000000000841603610a525760006001850190506000600460008381526020019081526020016000205403610a50576000548114610a4f578360046000838152602001908152602001600020819055505b5b505b600073ffffffffffffffffffffffffffffffffffffffff8673ffffffffffffffffffffffffffffffffffffffff161690508481887fddf252ad1be2c89b69c2b068fc378daa952ba7f163c4a11628f55a4df523b3ef600080a460008103610ac457610ac363ea553b3460e01b6117d7565b5b610ad18787876001611b22565b50505050505050565b3373ffffffffffffffffffffffffffffffffffffffff16610afa82610f0a565b73ffffffffffffffffffffffffffffffffffffffff1614610b50576040517f08c379a0000000000000000000000000000000000000000000000000000000008152600401610b4790612f7d565b60405180910390fd5b600b54600a60009054906101000a900473ffffffffffffffffffffffffffffffffffffffff1673ffffffffffffffffffffffffffffffffffffffff166370a08231336040518263ffffffff1660e01b8152600401610bae91906126b1565b602060405180830381865afa158015610bcb573d6000803e3d6000fd5b505050506040513d601f19601f82011682018060405250810190610bef9190612fb2565b1015610c30576040517f08c379a0000000000000000000000000000000000000000000000000000000008152600401610c2790613051565b60405180910390fd5b600a60009054906101000a900473ffffffffffffffffffffffffffffffffffffffff1673ffffffffffffffffffffffffffffffffffffffff166323b872dd3330600b546040518463ffffffff1660e01b8152600401610c9193929190613071565b6020604051808303816000875af1158015610cb0573d6000803e3d6000fd5b505050506040513d601f19601f82011682018060405250810190610cd491906130bd565b610d13576040517f08c379a0000000000000000000000000000000000000000000000000000000008152600401610d0a9061315c565b60405180910390fd5b600960009054906101000a900473ffffffffffffffffffffffffffffffffffffffff1673ffffffffffffffffffffffffffffffffffffffff166323b872dd3033846040518463ffffffff1660e01b8152600401610d7293929190613071565b600060405180830381600087803b158015610d8c57600080fd5b505af1158015610da0573d6000803e3d6000fd5b50505050600b54600c6000828254610db891906131ab565b92505081905550610dc881611b28565b50565b610de68383836040518060200160405280600081525061120d565b505050565b606080600084849050905060405191508082528060051b90508060208301016040525b60008114610e405760006020820391508186013590506000610e2f8261125f565b905080836020860101525050610e0e565b819250505092915050565b600a60009054906101000a900473ffffffffffffffffffffffffffffffffffffffff1673ffffffffffffffffffffffffffffffffffffffff166323b872dd3330846040518463ffffffff1660e01b8152600401610eaa93929190613071565b6020604051808303816000875af1158015610ec9573d6000803e3d6000fd5b505050506040513d601f19601f82011682018060405250810190610eed91906130bd565b5080600c6000828254610f0091906131ab565b9250508190555050565b6000610f158261193d565b9050919050565b60008073ffffffffffffffffffffffffffffffffffffffff168273ffffffffffffffffffffffffffffffffffffffff1603610f6257610f61638f4eb60460e01b6117d7565b5b67ffffffffffffffff600560008473ffffffffffffffffffffffffffffffffffffffff1673ffffffffffffffffffffffffffffffffffffffff16815260200190815260200160002054169050919050565b60607fffffffffffffffffffffffffffffffffffffffffffffffffffffffffffffffff610fde611915565b14610ff457610ff363bdba09d760e01b6117d7565b5b6000610ffe611910565b9050600061100a611b36565b9050606081831461102357611020858484611b3f565b90505b809350505050919050565b60606003805461103d90612f00565b80601f016020809104026020016040519081016040528092919081815260200182805461106990612f00565b80156110b65780601f1061108b576101008083540402835291602001916110b6565b820191906000526020600020905b81548152906001019060200180831161109957829003601f168201915b5050505050905090565b600b5481565b60606110d3848484611b3f565b90509392505050565b80600760006110e9611a7d565b73ffffffffffffffffffffffffffffffffffffffff1673ffffffffffffffffffffffffffffffffffffffff16815260200190815260200160002060008473ffffffffffffffffffffffffffffffffffffffff1673ffffffffffffffffffffffffffffffffffffffff16815260200190815260200160002060006101000a81548160ff0219169083151502179055508173ffffffffffffffffffffffffffffffffffffffff16611196611a7d565b73ffffffffffffffffffffffffffffffffffffffff167f17307eab39ab6107e8899845ad3d59bd9653f200f220920489ca2b5937696c31836040516111db9190612540565b60405180910390a35050565b600a60009054906101000a900473ffffffffffffffffffffffffffffffffffffffff1681565b611218848484610819565b60008373ffffffffffffffffffffffffffffffffffffffff163b146112595761124384848484611cfb565b6112585761125763d1a57ed660e01b6117d7565b5b5b50505050565b61126761243d565b61126f611910565b82106112ce5761127d611915565b8211156112945761128d82611e2a565b90506112cf565b61129c611b36565b8210156112cd575b6112ad82611e55565b6112bd57816001900391506112a4565b6112c682611e2a565b90506112cf565b5b5b919050565b600b54600a60009054906101000a900473ffffffffffffffffffffffffffffffffffffffff1673ffffffffffffffffffffffffffffffffffffffff166370a08231306040518263ffffffff1660e01b815260040161133291906126b1565b602060405180830381865afa15801561134f573d6000803e3d6000fd5b505050506040513d601f19601f820116820180604052508101906113739190612fb2565b10156113b4576040517f08c379a00000000000000000000000000000000000000000000000000000000081526004016113ab90613051565b60405180910390fd5b3073ffffffffffffffffffffffffffffffffffffffff16600960009054906101000a900473ffffffffffffffffffffffffffffffffffffffff1673ffffffffffffffffffffffffffffffffffffffff1663081812fc836040518263ffffffff1660e01b81526004016114269190612747565b602060405180830381865afa158015611443573d6000803e3d6000fd5b505050506040513d601f19601f8201168201806040525081019061146791906131f4565b73ffffffffffffffffffffffffffffffffffffffff16146114bd576040517f08c379a00000000000000000000000000000000000000000000000000000000081526004016114b490613293565b60405180910390fd5b600960009054906101000a900473ffffffffffffffffffffffffffffffffffffffff1673ffffffffffffffffffffffffffffffffffffffff166323b872dd3330846040518463ffffffff1660e01b815260040161151c93929190613071565b600060405180830381600087803b15801561153657600080fd5b505af115801561154a573d6000803e3d6000fd5b50505050600a60009054906101000a900473ffffffffffffffffffffffffffffffffffffffff1673ffffffffffffffffffffffffffffffffffffffff1663a9059cbb33600b546040518363ffffffff1660e01b81526004016115ad9291906132b3565b6020604051808303816000875af11580156115cc573d6000803e3d6000fd5b505050506040513d601f19601f820116820180604052508101906115f091906130bd565b50600b54600c600082825461160591906132dc565b92505081905550611617336001611e75565b50565b60606116258261172b565b61163a5761163963a14c4b5060e01b6117d7565b5b6000611644611e93565b90506000815103611664576040518060200160405280600081525061168f565b8061166e84611eaa565b60405160200161167f92919061334c565b6040516020818303038152906040525b915050919050565b6000600760008473ffffffffffffffffffffffffffffffffffffffff1673ffffffffffffffffffffffffffffffffffffffff16815260200190815260200160002060008373ffffffffffffffffffffffffffffffffffffffff1673ffffffffffffffffffffffffffffffffffffffff16815260200190815260200160002060009054906101000a900460ff16905092915050565b600081611736611910565b116117d157611743611915565b82111561176d576117666004600084815260200190815260200160002054611efa565b90506117d2565b6000548210156117d05760005b60006004600085815260200190815260200160002054915081036117a957826117a290613370565b925061177a565b60007c01000000000000000000000000000000000000000000000000000000008216149150505b5b5b919050565b8060005260046000fd5b60006117ec83610f0a565b905081801561182e57508073ffffffffffffffffffffffffffffffffffffffff16611815611a7d565b73ffffffffffffffffffffffffffffffffffffffff1614155b1561185a576118448161183f611a7d565b611697565b6118595761185863cfb3b94260e01b6117d7565b5b5b836006600085815260200190815260200160002060000160006101000a81548173ffffffffffffffffffffffffffffffffffffffff021916908373ffffffffffffffffffffffffffffffffffffffff160217905550828473ffffffffffffffffffffffffffffffffffffffff168273ffffffffffffffffffffffffffffffffffffffff167f8c5be1e5ebec7d5bd14f71427d1e84f3dd0314c0f7b2291e5b200ac8c7c3b92560405160405180910390a450505050565b600090565b60007fffffffffffffffffffffffffffffffffffffffffffffffffffffffffffffffff905090565b600081611948611910565b11611a40576004600083815260200190815260200160002054905061196b611915565b8211156119905761197b81611efa565b611a515761198f63df2d9b4260e01b6117d7565b5b60008103611a175760005482106119b2576119b163df2d9b4260e01b6117d7565b5b5b60046000836001900393508381526020019081526020016000205490506000810315611a125760007c010000000000000000000000000000000000000000000000000000000082160315611a5157611a1163df2d9b4260e01b6117d7565b5b6119b3565b60007c010000000000000000000000000000000000000000000000000000000082160315611a51575b611a5063df2d9b4260e01b6117d7565b5b919050565b60008060006006600085815260200190815260200160002090508092508254915050915091565b600033905090565b600073ffffffffffffffffffffffffffffffffffffffff8316925073ffffffffffffffffffffffffffffffffffffffff821691508382148383141790509392505050565b50505050565b60008060e883901c905060e8611ae6868684611f3b565b62ffffff16901b9150509392505050565b600073ffffffffffffffffffffffffffffffffffffffff83169250814260a01b178317905092915050565b50505050565b611b33816000611f44565b50565b60008054905090565b6060818310611b5957611b586332c1995a60e01b6117d7565b5b611b61611910565b831015611b7357611b70611910565b92505b6000611b7d611b36565b905060007fffffffffffffffffffffffffffffffffffffffffffffffffffffffffffffffff611baa611915565b03611bb55781611bb7565b835b9050808410611bc4578093505b6000611bcf87610f1c565b9050848610611bdd57600090505b60008114611cf1578086860311611bf45785850390505b600060405194506001820160051b85019050806040526000611c158861125f565b905060008160400151611c2a57816000015190505b60005b7fffffffffffffffffffffffffffffffffffffffffffffffffffffffffffffffff611c56611915565b14611c8557868a03611c70576001611c6c611915565b0199505b611c78611915565b8a1115611c8457600091505b5b611c8e8a611e2a565b9250604083015160008114611ca65760009250611ccc565b835115611cb257835192505b8b831860601b611ccb576001820191508a8260051b8a01525b5b5060018a01995083604052888a1480611ce457508481145b15611c2d57808852505050505b5050509392505050565b60008373ffffffffffffffffffffffffffffffffffffffff1663150b7a02611d21611a7d565b8786866040518563ffffffff1660e01b8152600401611d4394939291906133ee565b6020604051808303816000875af1925050508015611d7f57506040513d601f19601f82011682018060405250810190611d7c919061344f565b60015b611dd7573d8060008114611daf576040519150601f19603f3d011682016040523d82523d6000602084013e611db4565b606091505b506000815103611dcf57611dce63d1a57ed660e01b6117d7565b5b805181602001fd5b63150b7a0260e01b7bffffffffffffffffffffffffffffffffffffffffffffffffffffffff1916817bffffffffffffffffffffffffffffffffffffffffffffffffffffffff191614915050949350505050565b611e3261243d565b611e4e6004600084815260200190815260200160002054612175565b9050919050565b600080600460008481526020019081526020016000205414159050919050565b611e8f82826040518060200160405280600081525061222b565b5050565b606060405180602001604052806000815250905090565b606060a060405101806040526020810391506000825281835b600115611ee557600184039350600a81066030018453600a8104905080611ec3575b50828103602084039350808452505050919050565b60007c0100000000000000000000000000000000000000000000000000000000821673ffffffffffffffffffffffffffffffffffffffff8316119050919050565b60009392505050565b6000611f4f8361193d565b90506000819050600080611f6286611a56565b915091508415611faa57611f7e8184611f79611a7d565b611a85565b611fa957611f9383611f8e611a7d565b611697565b611fa857611fa76359c896be60e01b6117d7565b5b5b5b611fb8836000886001611ac9565b8015611fc357600082555b600160806001901b03600560008573ffffffffffffffffffffffffffffffffffffffff1673ffffffffffffffffffffffffffffffffffffffff1681526020019081526020016000206000828254019250508190555061206b8361202885600088611acf565b7c02000000000000000000000000000000000000000000000000000000007c01000000000000000000000000000000000000000000000000000000001717611af7565b600460008881526020019081526020016000208190555060007c02000000000000000000000000000000000000000000000000000000008516036120f157600060018701905060006004600083815260200190815260200160002054036120ef5760005481146120ee578460046000838152602001908152602001600020819055505b5b505b85600073ffffffffffffffffffffffffffffffffffffffff168473ffffffffffffffffffffffffffffffffffffffff167fddf252ad1be2c89b69c2b068fc378daa952ba7f163c4a11628f55a4df523b3ef60405160405180910390a461215b836000886001611b22565b600160008154809291906001019190505550505050505050565b61217d61243d565b81816000019073ffffffffffffffffffffffffffffffffffffffff16908173ffffffffffffffffffffffffffffffffffffffff168152505060a082901c816020019067ffffffffffffffff16908167ffffffffffffffff168152505060007c01000000000000000000000000000000000000000000000000000000008316141581604001901515908115158152505060e882901c816060019062ffffff16908162ffffff1681525050919050565b61223583836122a7565b60008373ffffffffffffffffffffffffffffffffffffffff163b146122a257600080549050600083820390505b6122756000868380600101945086611cfb565b61228a5761228963d1a57ed660e01b6117d7565b5b81811061226257816000541461229f57600080fd5b50505b505050565b600080549050600082036122c6576122c563b562e8dd60e01b6117d7565b5b6122d36000848385611ac9565b6122f3836122e46000866000611acf565b6122ed8561242d565b17611af7565b6004600083815260200190815260200160002081905550600160406001901b178202600560008573ffffffffffffffffffffffffffffffffffffffff1673ffffffffffffffffffffffffffffffffffffffff16815260200190815260200160002060008282540192505081905550600073ffffffffffffffffffffffffffffffffffffffff8473ffffffffffffffffffffffffffffffffffffffff16169050600081036123ab576123aa632e07630060e01b6117d7565b5b6000838301905060008390506123bf611915565b6001830311156123da576123d96381647e3a60e01b6117d7565b5b5b808360007fddf252ad1be2c89b69c2b068fc378daa952ba7f163c4a11628f55a4df523b3ef600080a48181600101915081036123db57816000819055505050506124286000848385611b22565b505050565b60006001821460e11b9050919050565b6040518060800160405280600073ffffffffffffffffffffffffffffffffffffffff168152602001600067ffffffffffffffff168152602001600015158152602001600062ffffff1681525090565b6000604051905090565b600080fd5b600080fd5b60007fffffffff0000000000000000000000000000000000000000000000000000000082169050919050565b6124d5816124a0565b81146124e057600080fd5b50565b6000813590506124f2816124cc565b92915050565b60006020828403121561250e5761250d612496565b5b600061251c848285016124e3565b91505092915050565b60008115159050919050565b61253a81612525565b82525050565b60006020820190506125556000830184612531565b92915050565b600081519050919050565b600082825260208201905092915050565b60005b8381101561259557808201518184015260208101905061257a565b60008484015250505050565b6000601f19601f8301169050919050565b60006125bd8261255b565b6125c78185612566565b93506125d7818560208601612577565b6125e0816125a1565b840191505092915050565b6000602082019050818103600083015261260581846125b2565b905092915050565b6000819050919050565b6126208161260d565b811461262b57600080fd5b50565b60008135905061263d81612617565b92915050565b60006020828403121561265957612658612496565b5b60006126678482850161262e565b91505092915050565b600073ffffffffffffffffffffffffffffffffffffffff82169050919050565b600061269b82612670565b9050919050565b6126ab81612690565b82525050565b60006020820190506126c660008301846126a2565b92915050565b6126d581612690565b81146126e057600080fd5b50565b6000813590506126f2816126cc565b92915050565b6000806040838503121561270f5761270e612496565b5b600061271d858286016126e3565b925050602061272e8582860161262e565b9150509250929050565b6127418161260d565b82525050565b600060208201905061275c6000830184612738565b92915050565b6000819050919050565b600061278761278261277d84612670565b612762565b612670565b9050919050565b60006127998261276c565b9050919050565b60006127ab8261278e565b9050919050565b6127bb816127a0565b82525050565b60006020820190506127d660008301846127b2565b92915050565b6000806000606084860312156127f5576127f4612496565b5b6000612803868287016126e3565b9350506020612814868287016126e3565b92505060406128258682870161262e565b9150509250925092565b600080fd5b600080fd5b600080fd5b60008083601f8401126128545761285361282f565b5b8235905067ffffffffffffffff81111561287157612870612834565b5b60208301915083602082028301111561288d5761288c612839565b5b9250929050565b600080602083850312156128ab576128aa612496565b5b600083013567ffffffffffffffff8111156128c9576128c861249b565b5b6128d58582860161283e565b92509250509250929050565b600081519050919050565b600082825260208201905092915050565b6000819050602082019050919050565b61291681612690565b82525050565b600067ffffffffffffffff82169050919050565b6129398161291c565b82525050565b61294881612525565b82525050565b600062ffffff82169050919050565b6129668161294e565b82525050565b608082016000820151612982600085018261290d565b5060208201516129956020850182612930565b5060408201516129a8604085018261293f565b5060608201516129bb606085018261295d565b50505050565b60006129cd838361296c565b60808301905092915050565b6000602082019050919050565b60006129f1826128e1565b6129fb81856128ec565b9350612a06836128fd565b8060005b83811015612a37578151612a1e88826129c1565b9750612a29836129d9565b925050600181019050612a0a565b5085935050505092915050565b60006020820190508181036000830152612a5e81846129e6565b905092915050565b600060208284031215612a7c57612a7b612496565b5b6000612a8a848285016126e3565b91505092915050565b600081519050919050565b600082825260208201905092915050565b6000819050602082019050919050565b612ac88161260d565b82525050565b6000612ada8383612abf565b60208301905092915050565b6000602082019050919050565b6000612afe82612a93565b612b088185612a9e565b9350612b1383612aaf565b8060005b83811015612b44578151612b2b8882612ace565b9750612b3683612ae6565b925050600181019050612b17565b5085935050505092915050565b60006020820190508181036000830152612b6b8184612af3565b905092915050565b600080600060608486031215612b8c57612b8b612496565b5b6000612b9a868287016126e3565b9350506020612bab8682870161262e565b9250506040612bbc8682870161262e565b9150509250925092565b612bcf81612525565b8114612bda57600080fd5b50565b600081359050612bec81612bc6565b92915050565b60008060408385031215612c0957612c08612496565b5b6000612c17858286016126e3565b9250506020612c2885828601612bdd565b9150509250929050565b6000612c3d8261278e565b9050919050565b612c4d81612c32565b82525050565b6000602082019050612c686000830184612c44565b92915050565b600080fd5b7f4e487b7100000000000000000000000000000000000000000000000000000000600052604160045260246000fd5b612cab826125a1565b810181811067ffffffffffffffff82111715612cca57612cc9612c73565b5b80604052505050565b6000612cdd61248c565b9050612ce98282612ca2565b919050565b600067ffffffffffffffff821115612d0957612d08612c73565b5b612d12826125a1565b9050602081019050919050565b82818337600083830152505050565b6000612d41612d3c84612cee565b612cd3565b905082815260208101848484011115612d5d57612d5c612c6e565b5b612d68848285612d1f565b509392505050565b600082601f830112612d8557612d8461282f565b5b8135612d95848260208601612d2e565b91505092915050565b60008060008060808587031215612db857612db7612496565b5b6000612dc6878288016126e3565b9450506020612dd7878288016126e3565b9350506040612de88782880161262e565b925050606085013567ffffffffffffffff811115612e0957612e0861249b565b5b612e1587828801612d70565b91505092959194509250565b608082016000820151612e37600085018261290d565b506020820151612e4a6020850182612930565b506040820151612e5d604085018261293f565b506060820151612e70606085018261295d565b50505050565b6000608082019050612e8b6000830184612e21565b92915050565b60008060408385031215612ea857612ea7612496565b5b6000612eb6858286016126e3565b9250506020612ec7858286016126e3565b9150509250929050565b7f4e487b7100000000000000000000000000000000000000000000000000000000600052602260045260246000fd5b60006002820490506001821680612f1857607f821691505b602082108103612f2b57612f2a612ed1565b5b50919050565b7f4d73672e73656e646572206973206e6f74206f776e6572206f66206c6f616e00600082015250565b6000612f67601f83612566565b9150612f7282612f31565b602082019050919050565b60006020820190508181036000830152612f9681612f5a565b9050919050565b600081519050612fac81612617565b92915050565b600060208284031215612fc857612fc7612496565b5b6000612fd684828501612f9d565b91505092915050565b7f436f6e747261637420646f6573206e6f74206861766520656e6f75676820746f60008201527f206d616b65206c6f616e00000000000000000000000000000000000000000000602082015250565b600061303b602a83612566565b915061304682612fdf565b604082019050919050565b6000602082019050818103600083015261306a8161302e565b9050919050565b600060608201905061308660008301866126a2565b61309360208301856126a2565b6130a06040830184612738565b949350505050565b6000815190506130b781612bc6565b92915050565b6000602082840312156130d3576130d2612496565b5b60006130e1848285016130a8565b91505092915050565b7f436f6e747261637420756e61626c6520746f207472616e7366657220746f6b6560008201527f6e7320746f20736574746c652064656274000000000000000000000000000000602082015250565b6000613146603183612566565b9150613151826130ea565b604082019050919050565b6000602082019050818103600083015261317581613139565b9050919050565b7f4e487b7100000000000000000000000000000000000000000000000000000000600052601160045260246000fd5b60006131b68261260d565b91506131c18361260d565b92508282019050808211156131d9576131d861317c565b5b92915050565b6000815190506131ee816126cc565b92915050565b60006020828403121561320a57613209612496565b5b6000613218848285016131df565b91505092915050565b7f436f6e7472616374206973206e6f7420617070726f76656420746f207472616e60008201527f73666572207468697320746f6b656e0000000000000000000000000000000000602082015250565b600061327d602f83612566565b915061328882613221565b604082019050919050565b600060208201905081810360008301526132ac81613270565b9050919050565b60006040820190506132c860008301856126a2565b6132d56020830184612738565b9392505050565b60006132e78261260d565b91506132f28361260d565b925082820390508181111561330a5761330961317c565b5b92915050565b600081905092915050565b60006133268261255b565b6133308185613310565b9350613340818560208601612577565b80840191505092915050565b6000613358828561331b565b9150613364828461331b565b91508190509392505050565b600061337b8261260d565b91506000820361338e5761338d61317c565b5b600182039050919050565b600081519050919050565b600082825260208201905092915050565b60006133c082613399565b6133ca81856133a4565b93506133da818560208601612577565b6133e3816125a1565b840191505092915050565b600060808201905061340360008301876126a2565b61341060208301866126a2565b61341d6040830185612738565b818103606083015261342f81846133b5565b905095945050505050565b600081519050613449816124cc565b92915050565b60006020828403121561346557613464612496565b5b60006134738482850161343a565b9150509291505056fea264697066735822122030038a0d027c29dce3f3f2b8903ac5c02c8160be1cad1c8b6fede035d23822e264736f6c63430008180033",
  "linkReferences": {},
  "deployedLinkReferences": {}
}